{
  "_format": "hh-sol-artifact-1",
  "contractName": "Certificate",
  "sourceName": "contracts/Certificate.sol",
  "abi": [
    {
      "inputs": [
        {
          "internalType": "string",
          "name": "",
          "type": "string"
        }
      ],
      "name": "certificates",
      "outputs": [
        {
          "internalType": "string",
          "name": "studentEmail",
          "type": "string"
        },
        {
          "internalType": "string",
          "name": "ipfsHash",
          "type": "string"
        },
        {
          "internalType": "string",
          "name": "certHash",
          "type": "string"
        }
      ],
      "stateMutability": "view",
      "type": "function"
    },
    {
      "inputs": [
        {
          "internalType": "string",
          "name": "_email",
          "type": "string"
        },
        {
          "internalType": "string",
          "name": "_ipfsHash",
          "type": "string"
        },
        {
          "internalType": "string",
          "name": "_certHash",
          "type": "string"
        }
      ],
      "name": "issueCertificate",
      "outputs": [],
      "stateMutability": "nonpayable",
      "type": "function"
    },
    {
      "inputs": [
        {
          "internalType": "string",
          "name": "_certHash",
          "type": "string"
        }
      ],
      "name": "verifyCertificate",
      "outputs": [
        {
          "internalType": "bool",
          "name": "",
          "type": "bool"
        }
      ],
      "stateMutability": "view",
      "type": "function"
    }
  ],
  "bytecode": "0x608060405234801561001057600080fd5b50610a14806100206000396000f3fe608060405234801561001057600080fd5b50600436106100415760003560e01c80638b23d875146100465780638f2b91ea14610076578063beec1caa146100a8575b600080fd5b610060600480360381019061005b91906104b2565b6100c4565b60405161006d9190610516565b60405180910390f35b610090600480360381019061008b91906104b2565b6100fd565b60405161009f939291906105b0565b60405180910390f35b6100c260048036038101906100bd91906105fc565b6102d5565b005b6000806000836040516100d791906106df565b908152602001604051809103902060020180546100f390610725565b9050119050919050565b60008180516020810182018051848252602083016020850120818352809550505050505060009150905080600001805461013690610725565b80601f016020809104026020016040519081016040528092919081815260200182805461016290610725565b80156101af5780601f10610184576101008083540402835291602001916101af565b820191906000526020600020905b81548152906001019060200180831161019257829003601f168201915b5050505050908060010180546101c490610725565b80601f01602080910402602001604051908101604052809291908181526020018280546101f090610725565b801561023d5780601f106102125761010080835404028352916020019161023d565b820191906000526020600020905b81548152906001019060200180831161022057829003601f168201915b50505050509080600201805461025290610725565b80601f016020809104026020016040519081016040528092919081815260200182805461027e90610725565b80156102cb5780601f106102a0576101008083540402835291602001916102cb565b820191906000526020600020905b8154815290600101906020018083116102ae57829003601f168201915b5050505050905083565b60405180606001604052808481526020018381526020018281525060008260405161030091906106df565b90815260200160405180910390206000820151816000019081610323919061090c565b506020820151816001019081610339919061090c565b50604082015181600201908161034f919061090c565b50905050505050565b6000604051905090565b600080fd5b600080fd5b600080fd5b600080fd5b6000601f19601f8301169050919050565b7f4e487b7100000000000000000000000000000000000000000000000000000000600052604160045260246000fd5b6103bf82610376565b810181811067ffffffffffffffff821117156103de576103dd610387565b5b80604052505050565b60006103f1610358565b90506103fd82826103b6565b919050565b600067ffffffffffffffff82111561041d5761041c610387565b5b61042682610376565b9050602081019050919050565b82818337600083830152505050565b600061045561045084610402565b6103e7565b90508281526020810184848401111561047157610470610371565b5b61047c848285610433565b509392505050565b600082601f8301126104995761049861036c565b5b81356104a9848260208601610442565b91505092915050565b6000602082840312156104c8576104c7610362565b5b600082013567ffffffffffffffff8111156104e6576104e5610367565b5b6104f284828501610484565b91505092915050565b60008115159050919050565b610510816104fb565b82525050565b600060208201905061052b6000830184610507565b92915050565b600081519050919050565b600082825260208201905092915050565b60005b8381101561056b578082015181840152602081019050610550565b60008484015250505050565b600061058282610531565b61058c818561053c565b935061059c81856020860161054d565b6105a581610376565b840191505092915050565b600060608201905081810360008301526105ca8186610577565b905081810360208301526105de8185610577565b905081810360408301526105f28184610577565b9050949350505050565b60008060006060848603121561061557610614610362565b5b600084013567ffffffffffffffff81111561063357610632610367565b5b61063f86828701610484565b935050602084013567ffffffffffffffff8111156106605761065f610367565b5b61066c86828701610484565b925050604084013567ffffffffffffffff81111561068d5761068c610367565b5b61069986828701610484565b9150509250925092565b600081905092915050565b60006106b982610531565b6106c381856106a3565b93506106d381856020860161054d565b80840191505092915050565b60006106eb82846106ae565b915081905092915050565b7f4e487b7100000000000000000000000000000000000000000000000000000000600052602260045260246000fd5b6000600282049050600182168061073d57607f821691505b6020821081036107505761074f6106f6565b5b50919050565b60008190508160005260206000209050919050565b60006020601f8301049050919050565b600082821b905092915050565b6000600883026107b87fffffffffffffffffffffffffffffffffffffffffffffffffffffffffffffffff8261077b565b6107c2868361077b565b95508019841693508086168417925050509392505050565b6000819050919050565b6000819050919050565b60006108096108046107ff846107da565b6107e4565b6107da565b9050919050565b6000819050919050565b610823836107ee565b61083761082f82610810565b848454610788565b825550505050565b600090565b61084c61083f565b61085781848461081a565b505050565b5b8181101561087b57610870600082610844565b60018101905061085d565b5050565b601f8211156108c05761089181610756565b61089a8461076b565b810160208510156108a9578190505b6108bd6108b58561076b565b83018261085c565b50505b505050565b600082821c905092915050565b60006108e3600019846008026108c5565b1980831691505092915050565b60006108fc83836108d2565b9150826002028217905092915050565b61091582610531565b67ffffffffffffffff81111561092e5761092d610387565b5b6109388254610725565b61094382828561087f565b600060209050601f8311600181146109765760008415610964578287015190505b61096e85826108f0565b8655506109d6565b601f19841661098486610756565b60005b828110156109ac57848901518255600182019150602085019450602081019050610987565b868310156109c957848901516109c5601f8916826108d2565b8355505b6001600288020188555050505b50505050505056fea2646970667358221220b017eb066593f3badc69dce0513650ec776bca03096c9ba934d15cb7e3b0ec2264736f6c63430008140033",
  "linkReferences": {},
  "deployedLinkReferences": {}
}